{
  "_format": "hh-sol-artifact-1",
  "contractName": "MyToken",
  "sourceName": "contracts/mock1155.sol",
  "abi": [
    {
      "inputs": [],
      "stateMutability": "nonpayable",
      "type": "constructor"
    },
    {
      "anonymous": false,
      "inputs": [
        {
          "indexed": true,
          "internalType": "address",
          "name": "account",
          "type": "address"
        },
        {
          "indexed": true,
          "internalType": "address",
          "name": "operator",
          "type": "address"
        },
        {
          "indexed": false,
          "internalType": "bool",
          "name": "approved",
          "type": "bool"
        }
      ],
      "name": "ApprovalForAll",
      "type": "event"
    },
    {
      "anonymous": false,
      "inputs": [
        {
          "indexed": true,
          "internalType": "address",
          "name": "previousOwner",
          "type": "address"
        },
        {
          "indexed": true,
          "internalType": "address",
          "name": "newOwner",
          "type": "address"
        }
      ],
      "name": "OwnershipTransferred",
      "type": "event"
    },
    {
      "anonymous": false,
      "inputs": [
        {
          "indexed": true,
          "internalType": "address",
          "name": "operator",
          "type": "address"
        },
        {
          "indexed": true,
          "internalType": "address",
          "name": "from",
          "type": "address"
        },
        {
          "indexed": true,
          "internalType": "address",
          "name": "to",
          "type": "address"
        },
        {
          "indexed": false,
          "internalType": "uint256[]",
          "name": "ids",
          "type": "uint256[]"
        },
        {
          "indexed": false,
          "internalType": "uint256[]",
          "name": "values",
          "type": "uint256[]"
        }
      ],
      "name": "TransferBatch",
      "type": "event"
    },
    {
      "anonymous": false,
      "inputs": [
        {
          "indexed": true,
          "internalType": "address",
          "name": "operator",
          "type": "address"
        },
        {
          "indexed": true,
          "internalType": "address",
          "name": "from",
          "type": "address"
        },
        {
          "indexed": true,
          "internalType": "address",
          "name": "to",
          "type": "address"
        },
        {
          "indexed": false,
          "internalType": "uint256",
          "name": "id",
          "type": "uint256"
        },
        {
          "indexed": false,
          "internalType": "uint256",
          "name": "value",
          "type": "uint256"
        }
      ],
      "name": "TransferSingle",
      "type": "event"
    },
    {
      "anonymous": false,
      "inputs": [
        {
          "indexed": false,
          "internalType": "string",
          "name": "value",
          "type": "string"
        },
        {
          "indexed": true,
          "internalType": "uint256",
          "name": "id",
          "type": "uint256"
        }
      ],
      "name": "URI",
      "type": "event"
    },
    {
      "inputs": [
        {
          "internalType": "address",
          "name": "account",
          "type": "address"
        },
        {
          "internalType": "uint256",
          "name": "id",
          "type": "uint256"
        }
      ],
      "name": "balanceOf",
      "outputs": [
        {
          "internalType": "uint256",
          "name": "",
          "type": "uint256"
        }
      ],
      "stateMutability": "view",
      "type": "function"
    },
    {
      "inputs": [
        {
          "internalType": "address[]",
          "name": "accounts",
          "type": "address[]"
        },
        {
          "internalType": "uint256[]",
          "name": "ids",
          "type": "uint256[]"
        }
      ],
      "name": "balanceOfBatch",
      "outputs": [
        {
          "internalType": "uint256[]",
          "name": "",
          "type": "uint256[]"
        }
      ],
      "stateMutability": "view",
      "type": "function"
    },
    {
      "inputs": [
        {
          "internalType": "address",
          "name": "account",
          "type": "address"
        },
        {
          "internalType": "address",
          "name": "operator",
          "type": "address"
        }
      ],
      "name": "isApprovedForAll",
      "outputs": [
        {
          "internalType": "bool",
          "name": "",
          "type": "bool"
        }
      ],
      "stateMutability": "view",
      "type": "function"
    },
    {
      "inputs": [
        {
          "internalType": "address",
          "name": "account",
          "type": "address"
        },
        {
          "internalType": "uint256",
          "name": "id",
          "type": "uint256"
        },
        {
          "internalType": "uint256",
          "name": "amount",
          "type": "uint256"
        },
        {
          "internalType": "bytes",
          "name": "data",
          "type": "bytes"
        }
      ],
      "name": "mint",
      "outputs": [],
      "stateMutability": "nonpayable",
      "type": "function"
    },
    {
      "inputs": [
        {
          "internalType": "address",
          "name": "to",
          "type": "address"
        },
        {
          "internalType": "uint256[]",
          "name": "ids",
          "type": "uint256[]"
        },
        {
          "internalType": "uint256[]",
          "name": "amounts",
          "type": "uint256[]"
        },
        {
          "internalType": "bytes",
          "name": "data",
          "type": "bytes"
        }
      ],
      "name": "mintBatch",
      "outputs": [],
      "stateMutability": "nonpayable",
      "type": "function"
    },
    {
      "inputs": [],
      "name": "owner",
      "outputs": [
        {
          "internalType": "address",
          "name": "",
          "type": "address"
        }
      ],
      "stateMutability": "view",
      "type": "function"
    },
    {
      "inputs": [],
      "name": "renounceOwnership",
      "outputs": [],
      "stateMutability": "nonpayable",
      "type": "function"
    },
    {
      "inputs": [
        {
          "internalType": "address",
          "name": "from",
          "type": "address"
        },
        {
          "internalType": "address",
          "name": "to",
          "type": "address"
        },
        {
          "internalType": "uint256[]",
          "name": "ids",
          "type": "uint256[]"
        },
        {
          "internalType": "uint256[]",
          "name": "amounts",
          "type": "uint256[]"
        },
        {
          "internalType": "bytes",
          "name": "data",
          "type": "bytes"
        }
      ],
      "name": "safeBatchTransferFrom",
      "outputs": [],
      "stateMutability": "nonpayable",
      "type": "function"
    },
    {
      "inputs": [
        {
          "internalType": "address",
          "name": "from",
          "type": "address"
        },
        {
          "internalType": "address",
          "name": "to",
          "type": "address"
        },
        {
          "internalType": "uint256",
          "name": "id",
          "type": "uint256"
        },
        {
          "internalType": "uint256",
          "name": "amount",
          "type": "uint256"
        },
        {
          "internalType": "bytes",
          "name": "data",
          "type": "bytes"
        }
      ],
      "name": "safeTransferFrom",
      "outputs": [],
      "stateMutability": "nonpayable",
      "type": "function"
    },
    {
      "inputs": [
        {
          "internalType": "address",
          "name": "operator",
          "type": "address"
        },
        {
          "internalType": "bool",
          "name": "approved",
          "type": "bool"
        }
      ],
      "name": "setApprovalForAll",
      "outputs": [],
      "stateMutability": "nonpayable",
      "type": "function"
    },
    {
      "inputs": [
        {
          "internalType": "string",
          "name": "newuri",
          "type": "string"
        }
      ],
      "name": "setURI",
      "outputs": [],
      "stateMutability": "nonpayable",
      "type": "function"
    },
    {
      "inputs": [
        {
          "internalType": "bytes4",
          "name": "interfaceId",
          "type": "bytes4"
        }
      ],
      "name": "supportsInterface",
      "outputs": [
        {
          "internalType": "bool",
          "name": "",
          "type": "bool"
        }
      ],
      "stateMutability": "view",
      "type": "function"
    },
    {
      "inputs": [
        {
          "internalType": "address",
          "name": "newOwner",
          "type": "address"
        }
      ],
      "name": "transferOwnership",
      "outputs": [],
      "stateMutability": "nonpayable",
      "type": "function"
    },
    {
      "inputs": [
        {
          "internalType": "uint256",
          "name": "",
          "type": "uint256"
        }
      ],
      "name": "uri",
      "outputs": [
        {
          "internalType": "string",
          "name": "",
          "type": "string"
        }
      ],
      "stateMutability": "view",
      "type": "function"
    }
  ],
  "bytecode": "0x60806040523480156200001157600080fd5b50604051806080016040528060488152602001620035c6604891396200003d816200006460201b60201c565b506200005e620000526200008060201b60201c565b6200008860201b60201c565b62000263565b80600290805190602001906200007c9291906200014e565b5050565b600033905090565b6000600360009054906101000a900473ffffffffffffffffffffffffffffffffffffffff16905081600360006101000a81548173ffffffffffffffffffffffffffffffffffffffff021916908373ffffffffffffffffffffffffffffffffffffffff1602179055508173ffffffffffffffffffffffffffffffffffffffff168173ffffffffffffffffffffffffffffffffffffffff167f8be0079c531659141344cd1fd0a4f28419497f9722a3daafe3b4186f6b6457e060405160405180910390a35050565b8280546200015c90620001fe565b90600052602060002090601f016020900481019282620001805760008555620001cc565b82601f106200019b57805160ff1916838001178555620001cc565b82800160010185558215620001cc579182015b82811115620001cb578251825591602001919060010190620001ae565b5b509050620001db9190620001df565b5090565b5b80821115620001fa576000816000905550600101620001e0565b5090565b600060028204905060018216806200021757607f821691505b602082108114156200022e576200022d62000234565b5b50919050565b7f4e487b7100000000000000000000000000000000000000000000000000000000600052602260045260246000fd5b61335380620002736000396000f3fe608060405234801561001057600080fd5b50600436106100e95760003560e01c8063715018a61161008c578063a22cb46511610066578063a22cb46514610246578063e985e9c514610262578063f242432a14610292578063f2fde38b146102ae576100e9565b8063715018a614610202578063731133e91461020c5780638da5cb5b14610228576100e9565b80630e89341c116100c85780630e89341c1461016a5780631f7fdffa1461019a5780632eb2c2d6146101b65780634e1273f4146101d2576100e9565b8062fdd58e146100ee57806301ffc9a71461011e57806302fe53051461014e575b600080fd5b61010860048036038101906101039190612258565b6102ca565b6040516101159190612a35565b60405180910390f35b6101386004803603810190610133919061237b565b610393565b6040516101459190612858565b60405180910390f35b610168600480360381019061016391906123cd565b610475565b005b610184600480360381019061017f919061240e565b6104fd565b6040516101919190612873565b60405180910390f35b6101b460048036038101906101af9190612171565b610591565b005b6101d060048036038101906101cb9190612023565b6105a3565b005b6101ec60048036038101906101e7919061230f565b610644565b6040516101f991906127ff565b60405180910390f35b61020a6107f5565b005b61022660048036038101906102219190612294565b61087d565b005b61023061088f565b60405161023d9190612722565b60405180910390f35b610260600480360381019061025b919061221c565b6108b9565b005b61027c60048036038101906102779190611fe7565b6108cf565b6040516102899190612858565b60405180910390f35b6102ac60048036038101906102a791906120e2565b610963565b005b6102c860048036038101906102c39190611fbe565b610a04565b005b60008073ffffffffffffffffffffffffffffffffffffffff168373ffffffffffffffffffffffffffffffffffffffff16141561033b576040517f08c379a0000000000000000000000000000000000000000000000000000000008152600401610332906128d5565b60405180910390fd5b60008083815260200190815260200160002060008473ffffffffffffffffffffffffffffffffffffffff1673ffffffffffffffffffffffffffffffffffffffff16815260200190815260200160002054905092915050565b60007fd9b67a26000000000000000000000000000000000000000000000000000000007bffffffffffffffffffffffffffffffffffffffffffffffffffffffff1916827bffffffffffffffffffffffffffffffffffffffffffffffffffffffff1916148061045e57507f0e89341c000000000000000000000000000000000000000000000000000000007bffffffffffffffffffffffffffffffffffffffffffffffffffffffff1916827bffffffffffffffffffffffffffffffffffffffffffffffffffffffff1916145b8061046e575061046d82610afc565b5b9050919050565b61047d610b66565b73ffffffffffffffffffffffffffffffffffffffff1661049b61088f565b73ffffffffffffffffffffffffffffffffffffffff16146104f1576040517f08c379a00000000000000000000000000000000000000000000000000000000081526004016104e890612995565b60405180910390fd5b6104fa81610b6e565b50565b60606002805461050c90612cd5565b80601f016020809104026020016040519081016040528092919081815260200182805461053890612cd5565b80156105855780601f1061055a57610100808354040283529160200191610585565b820191906000526020600020905b81548152906001019060200180831161056857829003601f168201915b50505050509050919050565b61059d84848484610b88565b50505050565b6105ab610b66565b73ffffffffffffffffffffffffffffffffffffffff168573ffffffffffffffffffffffffffffffffffffffff1614806105f157506105f0856105eb610b66565b6108cf565b5b610630576040517f08c379a000000000000000000000000000000000000000000000000000000000815260040161062790612955565b60405180910390fd5b61063d8585858585610e01565b5050505050565b6060815183511461068a576040517f08c379a0000000000000000000000000000000000000000000000000000000008152600401610681906129d5565b60405180910390fd5b6000835167ffffffffffffffff8111156106cd577f4e487b7100000000000000000000000000000000000000000000000000000000600052604160045260246000fd5b6040519080825280602002602001820160405280156106fb5781602001602082028036833780820191505090505b50905060005b84518110156107ea57610794858281518110610746577f4e487b7100000000000000000000000000000000000000000000000000000000600052603260045260246000fd5b6020026020010151858381518110610787577f4e487b7100000000000000000000000000000000000000000000000000000000600052603260045260246000fd5b60200260200101516102ca565b8282815181106107cd577f4e487b7100000000000000000000000000000000000000000000000000000000600052603260045260246000fd5b602002602001018181525050806107e390612d38565b9050610701565b508091505092915050565b6107fd610b66565b73ffffffffffffffffffffffffffffffffffffffff1661081b61088f565b73ffffffffffffffffffffffffffffffffffffffff1614610871576040517f08c379a000000000000000000000000000000000000000000000000000000000815260040161086890612995565b60405180910390fd5b61087b600061116f565b565b61088984848484611235565b50505050565b6000600360009054906101000a900473ffffffffffffffffffffffffffffffffffffffff16905090565b6108cb6108c4610b66565b83836113e6565b5050565b6000600160008473ffffffffffffffffffffffffffffffffffffffff1673ffffffffffffffffffffffffffffffffffffffff16815260200190815260200160002060008373ffffffffffffffffffffffffffffffffffffffff1673ffffffffffffffffffffffffffffffffffffffff16815260200190815260200160002060009054906101000a900460ff16905092915050565b61096b610b66565b73ffffffffffffffffffffffffffffffffffffffff168573ffffffffffffffffffffffffffffffffffffffff1614806109b157506109b0856109ab610b66565b6108cf565b5b6109f0576040517f08c379a00000000000000000000000000000000000000000000000000000000081526004016109e790612915565b60405180910390fd5b6109fd8585858585611553565b5050505050565b610a0c610b66565b73ffffffffffffffffffffffffffffffffffffffff16610a2a61088f565b73ffffffffffffffffffffffffffffffffffffffff1614610a80576040517f08c379a0000000000000000000000000000000000000000000000000000000008152600401610a7790612995565b60405180910390fd5b600073ffffffffffffffffffffffffffffffffffffffff168173ffffffffffffffffffffffffffffffffffffffff161415610af0576040517f08c379a0000000000000000000000000000000000000000000000000000000008152600401610ae7906128f5565b60405180910390fd5b610af98161116f565b50565b60007f01ffc9a7000000000000000000000000000000000000000000000000000000007bffffffffffffffffffffffffffffffffffffffffffffffffffffffff1916827bffffffffffffffffffffffffffffffffffffffffffffffffffffffff1916149050919050565b600033905090565b8060029080519060200190610b84929190611cb6565b5050565b600073ffffffffffffffffffffffffffffffffffffffff168473ffffffffffffffffffffffffffffffffffffffff161415610bf8576040517f08c379a0000000000000000000000000000000000000000000000000000000008152600401610bef90612a15565b60405180910390fd5b8151835114610c3c576040517f08c379a0000000000000000000000000000000000000000000000000000000008152600401610c33906129f5565b60405180910390fd5b6000610c46610b66565b9050610c57816000878787876117ef565b60005b8451811015610d5c57838181518110610c9c577f4e487b7100000000000000000000000000000000000000000000000000000000600052603260045260246000fd5b6020026020010151600080878481518110610ce0577f4e487b7100000000000000000000000000000000000000000000000000000000600052603260045260246000fd5b6020026020010151815260200190815260200160002060008873ffffffffffffffffffffffffffffffffffffffff1673ffffffffffffffffffffffffffffffffffffffff1681526020019081526020016000206000828254610d429190612bc9565b925050819055508080610d5490612d38565b915050610c5a565b508473ffffffffffffffffffffffffffffffffffffffff16600073ffffffffffffffffffffffffffffffffffffffff168273ffffffffffffffffffffffffffffffffffffffff167f4a39dc06d4c0dbc64b70af90fd698a233a518aa5d07e595d983b8c0526c8f7fb8787604051610dd4929190612821565b60405180910390a4610deb816000878787876117f7565b610dfa816000878787876117ff565b5050505050565b8151835114610e45576040517f08c379a0000000000000000000000000000000000000000000000000000000008152600401610e3c906129f5565b60405180910390fd5b600073ffffffffffffffffffffffffffffffffffffffff168473ffffffffffffffffffffffffffffffffffffffff161415610eb5576040517f08c379a0000000000000000000000000000000000000000000000000000000008152600401610eac90612935565b60405180910390fd5b6000610ebf610b66565b9050610ecf8187878787876117ef565b60005b84518110156110cc576000858281518110610f16577f4e487b7100000000000000000000000000000000000000000000000000000000600052603260045260246000fd5b602002602001015190506000858381518110610f5b577f4e487b7100000000000000000000000000000000000000000000000000000000600052603260045260246000fd5b60200260200101519050600080600084815260200190815260200160002060008b73ffffffffffffffffffffffffffffffffffffffff1673ffffffffffffffffffffffffffffffffffffffff16815260200190815260200160002054905081811015610ffc576040517f08c379a0000000000000000000000000000000000000000000000000000000008152600401610ff390612975565b60405180910390fd5b81810360008085815260200190815260200160002060008c73ffffffffffffffffffffffffffffffffffffffff1673ffffffffffffffffffffffffffffffffffffffff168152602001908152602001600020819055508160008085815260200190815260200160002060008b73ffffffffffffffffffffffffffffffffffffffff1673ffffffffffffffffffffffffffffffffffffffff16815260200190815260200160002060008282546110b19190612bc9565b92505081905550505050806110c590612d38565b9050610ed2565b508473ffffffffffffffffffffffffffffffffffffffff168673ffffffffffffffffffffffffffffffffffffffff168273ffffffffffffffffffffffffffffffffffffffff167f4a39dc06d4c0dbc64b70af90fd698a233a518aa5d07e595d983b8c0526c8f7fb8787604051611143929190612821565b60405180910390a46111598187878787876117f7565b6111678187878787876117ff565b505050505050565b6000600360009054906101000a900473ffffffffffffffffffffffffffffffffffffffff16905081600360006101000a81548173ffffffffffffffffffffffffffffffffffffffff021916908373ffffffffffffffffffffffffffffffffffffffff1602179055508173ffffffffffffffffffffffffffffffffffffffff168173ffffffffffffffffffffffffffffffffffffffff167f8be0079c531659141344cd1fd0a4f28419497f9722a3daafe3b4186f6b6457e060405160405180910390a35050565b600073ffffffffffffffffffffffffffffffffffffffff168473ffffffffffffffffffffffffffffffffffffffff1614156112a5576040517f08c379a000000000000000000000000000000000000000000000000000000000815260040161129c90612a15565b60405180910390fd5b60006112af610b66565b905060006112bc856119e6565b905060006112c9856119e6565b90506112da836000898585896117ef565b8460008088815260200190815260200160002060008973ffffffffffffffffffffffffffffffffffffffff1673ffffffffffffffffffffffffffffffffffffffff16815260200190815260200160002060008282546113399190612bc9565b925050819055508673ffffffffffffffffffffffffffffffffffffffff16600073ffffffffffffffffffffffffffffffffffffffff168473ffffffffffffffffffffffffffffffffffffffff167fc3d58168c5ae7397731d063d5bbf3d657854427343f4c083240f7aacaa2d0f6289896040516113b7929190612a50565b60405180910390a46113ce836000898585896117f7565b6113dd83600089898989611aac565b50505050505050565b8173ffffffffffffffffffffffffffffffffffffffff168373ffffffffffffffffffffffffffffffffffffffff161415611455576040517f08c379a000000000000000000000000000000000000000000000000000000000815260040161144c906129b5565b60405180910390fd5b80600160008573ffffffffffffffffffffffffffffffffffffffff1673ffffffffffffffffffffffffffffffffffffffff16815260200190815260200160002060008473ffffffffffffffffffffffffffffffffffffffff1673ffffffffffffffffffffffffffffffffffffffff16815260200190815260200160002060006101000a81548160ff0219169083151502179055508173ffffffffffffffffffffffffffffffffffffffff168373ffffffffffffffffffffffffffffffffffffffff167f17307eab39ab6107e8899845ad3d59bd9653f200f220920489ca2b5937696c31836040516115469190612858565b60405180910390a3505050565b600073ffffffffffffffffffffffffffffffffffffffff168473ffffffffffffffffffffffffffffffffffffffff1614156115c3576040517f08c379a00000000000000000000000000000000000000000000000000000000081526004016115ba90612935565b60405180910390fd5b60006115cd610b66565b905060006115da856119e6565b905060006115e7856119e6565b90506115f78389898585896117ef565b600080600088815260200190815260200160002060008a73ffffffffffffffffffffffffffffffffffffffff1673ffffffffffffffffffffffffffffffffffffffff1681526020019081526020016000205490508581101561168e576040517f08c379a000000000000000000000000000000000000000000000000000000000815260040161168590612975565b60405180910390fd5b85810360008089815260200190815260200160002060008b73ffffffffffffffffffffffffffffffffffffffff1673ffffffffffffffffffffffffffffffffffffffff168152602001908152602001600020819055508560008089815260200190815260200160002060008a73ffffffffffffffffffffffffffffffffffffffff1673ffffffffffffffffffffffffffffffffffffffff16815260200190815260200160002060008282546117439190612bc9565b925050819055508773ffffffffffffffffffffffffffffffffffffffff168973ffffffffffffffffffffffffffffffffffffffff168573ffffffffffffffffffffffffffffffffffffffff167fc3d58168c5ae7397731d063d5bbf3d657854427343f4c083240f7aacaa2d0f628a8a6040516117c0929190612a50565b60405180910390a46117d6848a8a86868a6117f7565b6117e4848a8a8a8a8a611aac565b505050505050505050565b505050505050565b505050505050565b61181e8473ffffffffffffffffffffffffffffffffffffffff16611c93565b156119de578373ffffffffffffffffffffffffffffffffffffffff1663bc197c8187878686866040518663ffffffff1660e01b815260040161186495949392919061273d565b602060405180830381600087803b15801561187e57600080fd5b505af19250505080156118af57506040513d601f19601f820116820180604052508101906118ac91906123a4565b60015b611955576118bb612e0e565b806308c379a0141561191857506118d061322b565b806118db575061191a565b806040517f08c379a000000000000000000000000000000000000000000000000000000000815260040161190f9190612873565b60405180910390fd5b505b6040517f08c379a000000000000000000000000000000000000000000000000000000000815260040161194c90612895565b60405180910390fd5b63bc197c8160e01b7bffffffffffffffffffffffffffffffffffffffffffffffffffffffff1916817bffffffffffffffffffffffffffffffffffffffffffffffffffffffff1916146119dc576040517f08c379a00000000000000000000000000000000000000000000000000000000081526004016119d3906128b5565b60405180910390fd5b505b505050505050565b60606000600167ffffffffffffffff811115611a2b577f4e487b7100000000000000000000000000000000000000000000000000000000600052604160045260246000fd5b604051908082528060200260200182016040528015611a595781602001602082028036833780820191505090505b5090508281600081518110611a97577f4e487b7100000000000000000000000000000000000000000000000000000000600052603260045260246000fd5b60200260200101818152505080915050919050565b611acb8473ffffffffffffffffffffffffffffffffffffffff16611c93565b15611c8b578373ffffffffffffffffffffffffffffffffffffffff1663f23a6e6187878686866040518663ffffffff1660e01b8152600401611b119594939291906127a5565b602060405180830381600087803b158015611b2b57600080fd5b505af1925050508015611b5c57506040513d601f19601f82011682018060405250810190611b5991906123a4565b60015b611c0257611b68612e0e565b806308c379a01415611bc55750611b7d61322b565b80611b885750611bc7565b806040517f08c379a0000000000000000000000000000000000000000000000000000000008152600401611bbc9190612873565b60405180910390fd5b505b6040517f08c379a0000000000000000000000000000000000000000000000000000000008152600401611bf990612895565b60405180910390fd5b63f23a6e6160e01b7bffffffffffffffffffffffffffffffffffffffffffffffffffffffff1916817bffffffffffffffffffffffffffffffffffffffffffffffffffffffff191614611c89576040517f08c379a0000000000000000000000000000000000000000000000000000000008152600401611c80906128b5565b60405180910390fd5b505b505050505050565b6000808273ffffffffffffffffffffffffffffffffffffffff163b119050919050565b828054611cc290612cd5565b90600052602060002090601f016020900481019282611ce45760008555611d2b565b82601f10611cfd57805160ff1916838001178555611d2b565b82800160010185558215611d2b579182015b82811115611d2a578251825591602001919060010190611d0f565b5b509050611d389190611d3c565b5090565b5b80821115611d55576000816000905550600101611d3d565b5090565b6000611d6c611d6784612a9e565b612a79565b90508083825260208201905082856020860282011115611d8b57600080fd5b60005b85811015611dbb5781611da18882611ead565b845260208401935060208301925050600181019050611d8e565b5050509392505050565b6000611dd8611dd384612aca565b612a79565b90508083825260208201905082856020860282011115611df757600080fd5b60005b85811015611e275781611e0d8882611fa9565b845260208401935060208301925050600181019050611dfa565b5050509392505050565b6000611e44611e3f84612af6565b612a79565b905082815260208101848484011115611e5c57600080fd5b611e67848285612c93565b509392505050565b6000611e82611e7d84612b27565b612a79565b905082815260208101848484011115611e9a57600080fd5b611ea5848285612c93565b509392505050565b600081359050611ebc816132c1565b92915050565b600082601f830112611ed357600080fd5b8135611ee3848260208601611d59565b91505092915050565b600082601f830112611efd57600080fd5b8135611f0d848260208601611dc5565b91505092915050565b600081359050611f25816132d8565b92915050565b600081359050611f3a816132ef565b92915050565b600081519050611f4f816132ef565b92915050565b600082601f830112611f6657600080fd5b8135611f76848260208601611e31565b91505092915050565b600082601f830112611f9057600080fd5b8135611fa0848260208601611e6f565b91505092915050565b600081359050611fb881613306565b92915050565b600060208284031215611fd057600080fd5b6000611fde84828501611ead565b91505092915050565b60008060408385031215611ffa57600080fd5b600061200885828601611ead565b925050602061201985828601611ead565b9150509250929050565b600080600080600060a0868803121561203b57600080fd5b600061204988828901611ead565b955050602061205a88828901611ead565b945050604086013567ffffffffffffffff81111561207757600080fd5b61208388828901611eec565b935050606086013567ffffffffffffffff8111156120a057600080fd5b6120ac88828901611eec565b925050608086013567ffffffffffffffff8111156120c957600080fd5b6120d588828901611f55565b9150509295509295909350565b600080600080600060a086880312156120fa57600080fd5b600061210888828901611ead565b955050602061211988828901611ead565b945050604061212a88828901611fa9565b935050606061213b88828901611fa9565b925050608086013567ffffffffffffffff81111561215857600080fd5b61216488828901611f55565b9150509295509295909350565b6000806000806080858703121561218757600080fd5b600061219587828801611ead565b945050602085013567ffffffffffffffff8111156121b257600080fd5b6121be87828801611eec565b935050604085013567ffffffffffffffff8111156121db57600080fd5b6121e787828801611eec565b925050606085013567ffffffffffffffff81111561220457600080fd5b61221087828801611f55565b91505092959194509250565b6000806040838503121561222f57600080fd5b600061223d85828601611ead565b925050602061224e85828601611f16565b9150509250929050565b6000806040838503121561226b57600080fd5b600061227985828601611ead565b925050602061228a85828601611fa9565b9150509250929050565b600080600080608085870312156122aa57600080fd5b60006122b887828801611ead565b94505060206122c987828801611fa9565b93505060406122da87828801611fa9565b925050606085013567ffffffffffffffff8111156122f757600080fd5b61230387828801611f55565b91505092959194509250565b6000806040838503121561232257600080fd5b600083013567ffffffffffffffff81111561233c57600080fd5b61234885828601611ec2565b925050602083013567ffffffffffffffff81111561236557600080fd5b61237185828601611eec565b9150509250929050565b60006020828403121561238d57600080fd5b600061239b84828501611f2b565b91505092915050565b6000602082840312156123b657600080fd5b60006123c484828501611f40565b91505092915050565b6000602082840312156123df57600080fd5b600082013567ffffffffffffffff8111156123f957600080fd5b61240584828501611f7f565b91505092915050565b60006020828403121561242057600080fd5b600061242e84828501611fa9565b91505092915050565b60006124438383612704565b60208301905092915050565b61245881612c1f565b82525050565b600061246982612b68565b6124738185612b96565b935061247e83612b58565b8060005b838110156124af5781516124968882612437565b97506124a183612b89565b925050600181019050612482565b5085935050505092915050565b6124c581612c31565b82525050565b60006124d682612b73565b6124e08185612ba7565b93506124f0818560208601612ca2565b6124f981612e30565b840191505092915050565b600061250f82612b7e565b6125198185612bb8565b9350612529818560208601612ca2565b61253281612e30565b840191505092915050565b600061254a603483612bb8565b915061255582612e4e565b604082019050919050565b600061256d602883612bb8565b915061257882612e9d565b604082019050919050565b6000612590602b83612bb8565b915061259b82612eec565b604082019050919050565b60006125b3602683612bb8565b91506125be82612f3b565b604082019050919050565b60006125d6602983612bb8565b91506125e182612f8a565b604082019050919050565b60006125f9602583612bb8565b915061260482612fd9565b604082019050919050565b600061261c603283612bb8565b915061262782613028565b604082019050919050565b600061263f602a83612bb8565b915061264a82613077565b604082019050919050565b6000612662602083612bb8565b915061266d826130c6565b602082019050919050565b6000612685602983612bb8565b9150612690826130ef565b604082019050919050565b60006126a8602983612bb8565b91506126b38261313e565b604082019050919050565b60006126cb602883612bb8565b91506126d68261318d565b604082019050919050565b60006126ee602183612bb8565b91506126f9826131dc565b604082019050919050565b61270d81612c89565b82525050565b61271c81612c89565b82525050565b6000602082019050612737600083018461244f565b92915050565b600060a082019050612752600083018861244f565b61275f602083018761244f565b8181036040830152612771818661245e565b90508181036060830152612785818561245e565b9050818103608083015261279981846124cb565b90509695505050505050565b600060a0820190506127ba600083018861244f565b6127c7602083018761244f565b6127d46040830186612713565b6127e16060830185612713565b81810360808301526127f381846124cb565b90509695505050505050565b60006020820190508181036000830152612819818461245e565b905092915050565b6000604082019050818103600083015261283b818561245e565b9050818103602083015261284f818461245e565b90509392505050565b600060208201905061286d60008301846124bc565b92915050565b6000602082019050818103600083015261288d8184612504565b905092915050565b600060208201905081810360008301526128ae8161253d565b9050919050565b600060208201905081810360008301526128ce81612560565b9050919050565b600060208201905081810360008301526128ee81612583565b9050919050565b6000602082019050818103600083015261290e816125a6565b9050919050565b6000602082019050818103600083015261292e816125c9565b9050919050565b6000602082019050818103600083015261294e816125ec565b9050919050565b6000602082019050818103600083015261296e8161260f565b9050919050565b6000602082019050818103600083015261298e81612632565b9050919050565b600060208201905081810360008301526129ae81612655565b9050919050565b600060208201905081810360008301526129ce81612678565b9050919050565b600060208201905081810360008301526129ee8161269b565b9050919050565b60006020820190508181036000830152612a0e816126be565b9050919050565b60006020820190508181036000830152612a2e816126e1565b9050919050565b6000602082019050612a4a6000830184612713565b92915050565b6000604082019050612a656000830185612713565b612a726020830184612713565b9392505050565b6000612a83612a94565b9050612a8f8282612d07565b919050565b6000604051905090565b600067ffffffffffffffff821115612ab957612ab8612ddf565b5b602082029050602081019050919050565b600067ffffffffffffffff821115612ae557612ae4612ddf565b5b602082029050602081019050919050565b600067ffffffffffffffff821115612b1157612b10612ddf565b5b612b1a82612e30565b9050602081019050919050565b600067ffffffffffffffff821115612b4257612b41612ddf565b5b612b4b82612e30565b9050602081019050919050565b6000819050602082019050919050565b600081519050919050565b600081519050919050565b600081519050919050565b6000602082019050919050565b600082825260208201905092915050565b600082825260208201905092915050565b600082825260208201905092915050565b6000612bd482612c89565b9150612bdf83612c89565b9250827fffffffffffffffffffffffffffffffffffffffffffffffffffffffffffffffff03821115612c1457612c13612d81565b5b828201905092915050565b6000612c2a82612c69565b9050919050565b60008115159050919050565b60007fffffffff0000000000000000000000000000000000000000000000000000000082169050919050565b600073ffffffffffffffffffffffffffffffffffffffff82169050919050565b6000819050919050565b82818337600083830152505050565b60005b83811015612cc0578082015181840152602081019050612ca5565b83811115612ccf576000848401525b50505050565b60006002820490506001821680612ced57607f821691505b60208210811415612d0157612d00612db0565b5b50919050565b612d1082612e30565b810181811067ffffffffffffffff82111715612d2f57612d2e612ddf565b5b80604052505050565b6000612d4382612c89565b91507fffffffffffffffffffffffffffffffffffffffffffffffffffffffffffffffff821415612d7657612d75612d81565b5b600182019050919050565b7f4e487b7100000000000000000000000000000000000000000000000000000000600052601160045260246000fd5b7f4e487b7100000000000000000000000000000000000000000000000000000000600052602260045260246000fd5b7f4e487b7100000000000000000000000000000000000000000000000000000000600052604160045260246000fd5b600060033d1115612e2d5760046000803e612e2a600051612e41565b90505b90565b6000601f19601f8301169050919050565b60008160e01c9050919050565b7f455243313135353a207472616e7366657220746f206e6f6e204552433131353560008201527f526563656976657220696d706c656d656e746572000000000000000000000000602082015250565b7f455243313135353a204552433131353552656365697665722072656a6563746560008201527f6420746f6b656e73000000000000000000000000000000000000000000000000602082015250565b7f455243313135353a2062616c616e636520717565727920666f7220746865207a60008201527f65726f2061646472657373000000000000000000000000000000000000000000602082015250565b7f4f776e61626c653a206e6577206f776e657220697320746865207a65726f206160008201527f6464726573730000000000000000000000000000000000000000000000000000602082015250565b7f455243313135353a2063616c6c6572206973206e6f74206f776e6572206e6f7260008201527f20617070726f7665640000000000000000000000000000000000000000000000602082015250565b7f455243313135353a207472616e7366657220746f20746865207a65726f20616460008201527f6472657373000000000000000000000000000000000000000000000000000000602082015250565b7f455243313135353a207472616e736665722063616c6c6572206973206e6f742060008201527f6f776e6572206e6f7220617070726f7665640000000000000000000000000000602082015250565b7f455243313135353a20696e73756666696369656e742062616c616e636520666f60008201527f72207472616e7366657200000000000000000000000000000000000000000000602082015250565b7f4f776e61626c653a2063616c6c6572206973206e6f7420746865206f776e6572600082015250565b7f455243313135353a2073657474696e6720617070726f76616c2073746174757360008201527f20666f722073656c660000000000000000000000000000000000000000000000602082015250565b7f455243313135353a206163636f756e747320616e6420696473206c656e67746860008201527f206d69736d617463680000000000000000000000000000000000000000000000602082015250565b7f455243313135353a2069647320616e6420616d6f756e7473206c656e6774682060008201527f6d69736d61746368000000000000000000000000000000000000000000000000602082015250565b7f455243313135353a206d696e7420746f20746865207a65726f2061646472657360008201527f7300000000000000000000000000000000000000000000000000000000000000602082015250565b600060443d101561323b576132be565b613243612a94565b60043d036004823e80513d602482011167ffffffffffffffff8211171561326b5750506132be565b808201805167ffffffffffffffff81111561328957505050506132be565b80602083010160043d0385018111156132a65750505050506132be565b6132b582602001850186612d07565b82955050505050505b90565b6132ca81612c1f565b81146132d557600080fd5b50565b6132e181612c31565b81146132ec57600080fd5b50565b6132f881612c3d565b811461330357600080fd5b50565b61330f81612c89565b811461331a57600080fd5b5056fea2646970667358221220639a751152fbafab24c37e15f1f85b3809d32d265312c7be7277d412ae79a78864736f6c6343000804003368747470733a2f2f697066732e696f2f697066732f516d5674627a41726564424b795363317678647338624e4e423169447659794e61375656335334643879486771622f7b69647d",
  "linkReferences": {},
  "deployedLinkReferences": {}
}